{
	"KepTang/KepTang.sol": {
		"KebTang": {
			"abi": [
				{
					"inputs": [],
					"name": "getBalance",
					"outputs": [
						{
							"internalType": "uint256",
							"name": "",
							"type": "uint256"
						}
					],
					"stateMutability": "view",
					"type": "function"
				},
				{
					"inputs": [],
					"name": "transfer1",
					"outputs": [],
					"stateMutability": "payable",
					"type": "function"
				},
				{
					"inputs": [],
					"name": "transfer2",
					"outputs": [],
					"stateMutability": "payable",
					"type": "function"
				},
				{
					"inputs": [],
					"name": "transfer3",
					"outputs": [],
					"stateMutability": "payable",
					"type": "function"
				}
			],
			"devdoc": {
				"kind": "dev",
				"methods": {},
				"version": 1
			},
			"evm": {
				"assembly": "    /* \"KepTang/KepTang.sol\":62:333  contract KebTang {... */\n  mstore(0x40, 0x80)\n  callvalue\n  dup1\n  iszero\n  tag_1\n  jumpi\n  0x00\n  dup1\n  revert\ntag_1:\n  pop\n  dataSize(sub_0)\n  dup1\n  dataOffset(sub_0)\n  0x00\n  codecopy\n  0x00\n  return\nstop\n\nsub_0: assembly {\n        /* \"KepTang/KepTang.sol\":62:333  contract KebTang {... */\n      mstore(0x40, 0x80)\n      jumpi(tag_1, lt(calldatasize, 0x04))\n      shr(0xe0, calldataload(0x00))\n      dup1\n      0x12065fe0\n      eq\n      tag_2\n      jumpi\n      dup1\n      0x21adf6a4\n      eq\n      tag_3\n      jumpi\n      dup1\n      0x248c44e8\n      eq\n      tag_4\n      jumpi\n      dup1\n      0x343bfdff\n      eq\n      tag_5\n      jumpi\n    tag_1:\n      0x00\n      dup1\n      revert\n        /* \"KepTang/KepTang.sol\":232:328  function getBalance() public view returns (uint) {... */\n    tag_2:\n      callvalue\n      dup1\n      iszero\n      tag_6\n      jumpi\n      0x00\n      dup1\n      revert\n    tag_6:\n      pop\n      tag_7\n      tag_8\n      jump\t// in\n    tag_7:\n      mload(0x40)\n      tag_9\n      swap2\n      swap1\n      tag_10\n      jump\t// in\n    tag_9:\n      mload(0x40)\n      dup1\n      swap2\n      sub\n      swap1\n      return\n        /* \"KepTang/KepTang.sol\":184:224  function transfer3() external payable {} */\n    tag_3:\n      tag_11\n      tag_12\n      jump\t// in\n    tag_11:\n      stop\n        /* \"KepTang/KepTang.sol\":136:176  function transfer2() external payable {} */\n    tag_4:\n      tag_13\n      tag_14\n      jump\t// in\n    tag_13:\n      stop\n        /* \"KepTang/KepTang.sol\":88:128  function transfer1() external payable {} */\n    tag_5:\n      tag_15\n      tag_16\n      jump\t// in\n    tag_15:\n      stop\n        /* \"KepTang/KepTang.sol\":232:328  function getBalance() public view returns (uint) {... */\n    tag_8:\n        /* \"KepTang/KepTang.sol\":275:279  uint */\n      0x00\n        /* \"KepTang/KepTang.sol\":299:320  address(this).balance */\n      selfbalance\n        /* \"KepTang/KepTang.sol\":292:320  return address(this).balance */\n      swap1\n      pop\n        /* \"KepTang/KepTang.sol\":232:328  function getBalance() public view returns (uint) {... */\n      swap1\n      jump\t// out\n        /* \"KepTang/KepTang.sol\":184:224  function transfer3() external payable {} */\n    tag_12:\n      jump\t// out\n        /* \"KepTang/KepTang.sol\":136:176  function transfer2() external payable {} */\n    tag_14:\n      jump\t// out\n        /* \"KepTang/KepTang.sol\":88:128  function transfer1() external payable {} */\n    tag_16:\n      jump\t// out\n        /* \"#utility.yul\":7:84   */\n    tag_21:\n        /* \"#utility.yul\":44:51   */\n      0x00\n        /* \"#utility.yul\":73:78   */\n      dup2\n        /* \"#utility.yul\":62:78   */\n      swap1\n      pop\n        /* \"#utility.yul\":7:84   */\n      swap2\n      swap1\n      pop\n      jump\t// out\n        /* \"#utility.yul\":90:208   */\n    tag_22:\n        /* \"#utility.yul\":177:201   */\n      tag_26\n        /* \"#utility.yul\":195:200   */\n      dup2\n        /* \"#utility.yul\":177:201   */\n      tag_21\n      jump\t// in\n    tag_26:\n        /* \"#utility.yul\":172:175   */\n      dup3\n        /* \"#utility.yul\":165:202   */\n      mstore\n        /* \"#utility.yul\":90:208   */\n      pop\n      pop\n      jump\t// out\n        /* \"#utility.yul\":214:436   */\n    tag_10:\n        /* \"#utility.yul\":307:311   */\n      0x00\n        /* \"#utility.yul\":345:347   */\n      0x20\n        /* \"#utility.yul\":334:343   */\n      dup3\n        /* \"#utility.yul\":330:348   */\n      add\n        /* \"#utility.yul\":322:348   */\n      swap1\n      pop\n        /* \"#utility.yul\":358:429   */\n      tag_28\n        /* \"#utility.yul\":426:427   */\n      0x00\n        /* \"#utility.yul\":415:424   */\n      dup4\n        /* \"#utility.yul\":411:428   */\n      add\n        /* \"#utility.yul\":402:408   */\n      dup5\n        /* \"#utility.yul\":358:429   */\n      tag_22\n      jump\t// in\n    tag_28:\n        /* \"#utility.yul\":214:436   */\n      swap3\n      swap2\n      pop\n      pop\n      jump\t// out\n\n    auxdata: 0xa26469706673582212204b3986be76e6603b5de73a6c3b4d1da82f22a558bdf5cc57380d7cbb927e02ab64736f6c634300080d0033\n}\n",
				"bytecode": {
					"linkReferences": {},
					"object": "608060405234801561001057600080fd5b5060f18061001f6000396000f3fe608060405260043610603a5760003560e01c806312065fe014603f57806321adf6a4146065578063248c44e814606d578063343bfdff146075575b600080fd5b348015604a57600080fd5b506051607d565b604051605c919060a2565b60405180910390f35b606b6085565b005b60736087565b005b607b6089565b005b600047905090565b565b565b565b6000819050919050565b609c81608b565b82525050565b600060208201905060b560008301846095565b9291505056fea26469706673582212204b3986be76e6603b5de73a6c3b4d1da82f22a558bdf5cc57380d7cbb927e02ab64736f6c634300080d0033",
					"opcodes": "PUSH1 0x80 PUSH1 0x40 MSTORE CALLVALUE DUP1 ISZERO PUSH2 0x10 JUMPI PUSH1 0x0 DUP1 REVERT JUMPDEST POP PUSH1 0xF1 DUP1 PUSH2 0x1F PUSH1 0x0 CODECOPY PUSH1 0x0 RETURN INVALID PUSH1 0x80 PUSH1 0x40 MSTORE PUSH1 0x4 CALLDATASIZE LT PUSH1 0x3A JUMPI PUSH1 0x0 CALLDATALOAD PUSH1 0xE0 SHR DUP1 PUSH4 0x12065FE0 EQ PUSH1 0x3F JUMPI DUP1 PUSH4 0x21ADF6A4 EQ PUSH1 0x65 JUMPI DUP1 PUSH4 0x248C44E8 EQ PUSH1 0x6D JUMPI DUP1 PUSH4 0x343BFDFF EQ PUSH1 0x75 JUMPI JUMPDEST PUSH1 0x0 DUP1 REVERT JUMPDEST CALLVALUE DUP1 ISZERO PUSH1 0x4A JUMPI PUSH1 0x0 DUP1 REVERT JUMPDEST POP PUSH1 0x51 PUSH1 0x7D JUMP JUMPDEST PUSH1 0x40 MLOAD PUSH1 0x5C SWAP2 SWAP1 PUSH1 0xA2 JUMP JUMPDEST PUSH1 0x40 MLOAD DUP1 SWAP2 SUB SWAP1 RETURN JUMPDEST PUSH1 0x6B PUSH1 0x85 JUMP JUMPDEST STOP JUMPDEST PUSH1 0x73 PUSH1 0x87 JUMP JUMPDEST STOP JUMPDEST PUSH1 0x7B PUSH1 0x89 JUMP JUMPDEST STOP JUMPDEST PUSH1 0x0 SELFBALANCE SWAP1 POP SWAP1 JUMP JUMPDEST JUMP JUMPDEST JUMP JUMPDEST JUMP JUMPDEST PUSH1 0x0 DUP2 SWAP1 POP SWAP2 SWAP1 POP JUMP JUMPDEST PUSH1 0x9C DUP2 PUSH1 0x8B JUMP JUMPDEST DUP3 MSTORE POP POP JUMP JUMPDEST PUSH1 0x0 PUSH1 0x20 DUP3 ADD SWAP1 POP PUSH1 0xB5 PUSH1 0x0 DUP4 ADD DUP5 PUSH1 0x95 JUMP JUMPDEST SWAP3 SWAP2 POP POP JUMP INVALID LOG2 PUSH5 0x6970667358 0x22 SLT KECCAK256 0x4B CODECOPY DUP7 0xBE PUSH23 0xE6603B5DE73A6C3B4D1DA82F22A558BDF5CC57380D7CBB SWAP3 PUSH31 0x2AB64736F6C634300080D0033000000000000000000000000000000000000 "
				},
				"gasEstimates": {
					"creation": {
						"codeDepositCost": "48200",
						"executionCost": "99",
						"totalCost": "48299"
					},
					"external": {
						"getBalance()": "317",
						"transfer1()": "164",
						"transfer2()": "142",
						"transfer3()": "120"
					}
				},
				"methodIdentifiers": {
					"getBalance()": "12065fe0",
					"transfer1()": "343bfdff",
					"transfer2()": "248c44e8",
					"transfer3()": "21adf6a4"
				}
			},
			"storageLayout": {
				"storage": [],
				"types": null
			},
			"userdoc": {
				"kind": "user",
				"methods": {},
				"version": 1
			}
		}
	}
}