{
	"KepTang/KepTang.sol": {
		"KebTang": {
			"abi": [
				{
					"inputs": [],
					"name": "getBalance",
					"outputs": [
						{
							"internalType": "uint256",
							"name": "",
							"type": "uint256"
						}
					],
					"stateMutability": "view",
					"type": "function"
				},
				{
					"inputs": [],
					"name": "getUName",
					"outputs": [
						{
							"internalType": "string",
							"name": "",
							"type": "string"
						}
					],
					"stateMutability": "view",
					"type": "function"
				},
				{
					"inputs": [
						{
							"internalType": "string",
							"name": "_uName",
							"type": "string"
						}
					],
					"name": "setUName",
					"outputs": [],
					"stateMutability": "nonpayable",
					"type": "function"
				},
				{
					"inputs": [],
					"name": "transfer1",
					"outputs": [],
					"stateMutability": "payable",
					"type": "function"
				},
				{
					"inputs": [],
					"name": "transfer2",
					"outputs": [],
					"stateMutability": "payable",
					"type": "function"
				},
				{
					"inputs": [],
					"name": "transfer3",
					"outputs": [],
					"stateMutability": "payable",
					"type": "function"
				},
				{
					"inputs": [],
					"name": "uName",
					"outputs": [
						{
							"internalType": "string",
							"name": "",
							"type": "string"
						}
					],
					"stateMutability": "view",
					"type": "function"
				}
			],
			"devdoc": {
				"kind": "dev",
				"methods": {},
				"version": 1
			},
			"evm": {
				"assembly": "    /* \"KepTang/KepTang.sol\":62:543  contract KebTang {... */\n  mstore(0x40, 0x80)\n  callvalue\n  dup1\n  iszero\n  tag_1\n  jumpi\n  0x00\n  dup1\n  revert\ntag_1:\n  pop\n  dataSize(sub_0)\n  dup1\n  dataOffset(sub_0)\n  0x00\n  codecopy\n  0x00\n  return\nstop\n\nsub_0: assembly {\n        /* \"KepTang/KepTang.sol\":62:543  contract KebTang {... */\n      mstore(0x40, 0x80)\n      jumpi(tag_1, lt(calldatasize, 0x04))\n      shr(0xe0, calldataload(0x00))\n      dup1\n      0x343bfdff\n      gt\n      tag_9\n      jumpi\n      dup1\n      0x343bfdff\n      eq\n      tag_5\n      jumpi\n      dup1\n      0x572b3e46\n      eq\n      tag_6\n      jumpi\n      dup1\n      0x9d25ff09\n      eq\n      tag_7\n      jumpi\n      dup1\n      0xdb897fd6\n      eq\n      tag_8\n      jumpi\n      jump(tag_1)\n    tag_9:\n      dup1\n      0x12065fe0\n      eq\n      tag_2\n      jumpi\n      dup1\n      0x21adf6a4\n      eq\n      tag_3\n      jumpi\n      dup1\n      0x248c44e8\n      eq\n      tag_4\n      jumpi\n    tag_1:\n      0x00\n      dup1\n      revert\n        /* \"KepTang/KepTang.sol\":442:538  function getBalance() public view returns (uint) {... */\n    tag_2:\n      callvalue\n      dup1\n      iszero\n      tag_10\n      jumpi\n      0x00\n      dup1\n      revert\n    tag_10:\n      pop\n      tag_11\n      tag_12\n      jump\t// in\n    tag_11:\n      mload(0x40)\n      tag_13\n      swap2\n      swap1\n      tag_14\n      jump\t// in\n    tag_13:\n      mload(0x40)\n      dup1\n      swap2\n      sub\n      swap1\n      return\n        /* \"KepTang/KepTang.sol\":394:434  function transfer3() external payable {} */\n    tag_3:\n      tag_15\n      tag_16\n      jump\t// in\n    tag_15:\n      stop\n        /* \"KepTang/KepTang.sol\":346:386  function transfer2() external payable {} */\n    tag_4:\n      tag_17\n      tag_18\n      jump\t// in\n    tag_17:\n      stop\n        /* \"KepTang/KepTang.sol\":298:338  function transfer1() external payable {} */\n    tag_5:\n      tag_19\n      tag_20\n      jump\t// in\n    tag_19:\n      stop\n        /* \"KepTang/KepTang.sol\":116:202  function getUName() public view returns (string memory){... */\n    tag_6:\n      callvalue\n      dup1\n      iszero\n      tag_21\n      jumpi\n      0x00\n      dup1\n      revert\n    tag_21:\n      pop\n      tag_22\n      tag_23\n      jump\t// in\n    tag_22:\n      mload(0x40)\n      tag_24\n      swap2\n      swap1\n      tag_25\n      jump\t// in\n    tag_24:\n      mload(0x40)\n      dup1\n      swap2\n      sub\n      swap1\n      return\n        /* \"KepTang/KepTang.sol\":88:107  string public uName */\n    tag_7:\n      callvalue\n      dup1\n      iszero\n      tag_26\n      jumpi\n      0x00\n      dup1\n      revert\n    tag_26:\n      pop\n      tag_27\n      tag_28\n      jump\t// in\n    tag_27:\n      mload(0x40)\n      tag_29\n      swap2\n      swap1\n      tag_25\n      jump\t// in\n    tag_29:\n      mload(0x40)\n      dup1\n      swap2\n      sub\n      swap1\n      return\n        /* \"KepTang/KepTang.sol\":210:290  function setUName(string memory _uName) public {... */\n    tag_8:\n      callvalue\n      dup1\n      iszero\n      tag_30\n      jumpi\n      0x00\n      dup1\n      revert\n    tag_30:\n      pop\n      tag_31\n      0x04\n      dup1\n      calldatasize\n      sub\n      dup2\n      add\n      swap1\n      tag_32\n      swap2\n      swap1\n      tag_33\n      jump\t// in\n    tag_32:\n      tag_34\n      jump\t// in\n    tag_31:\n      stop\n        /* \"KepTang/KepTang.sol\":442:538  function getBalance() public view returns (uint) {... */\n    tag_12:\n        /* \"KepTang/KepTang.sol\":485:489  uint */\n      0x00\n        /* \"KepTang/KepTang.sol\":509:530  address(this).balance */\n      selfbalance\n        /* \"KepTang/KepTang.sol\":502:530  return address(this).balance */\n      swap1\n      pop\n        /* \"KepTang/KepTang.sol\":442:538  function getBalance() public view returns (uint) {... */\n      swap1\n      jump\t// out\n        /* \"KepTang/KepTang.sol\":394:434  function transfer3() external payable {} */\n    tag_16:\n      jump\t// out\n        /* \"KepTang/KepTang.sol\":346:386  function transfer2() external payable {} */\n    tag_18:\n      jump\t// out\n        /* \"KepTang/KepTang.sol\":298:338  function transfer1() external payable {} */\n    tag_20:\n      jump\t// out\n        /* \"KepTang/KepTang.sol\":116:202  function getUName() public view returns (string memory){... */\n    tag_23:\n        /* \"KepTang/KepTang.sol\":157:170  string memory */\n      0x60\n        /* \"KepTang/KepTang.sol\":189:194  uName */\n      0x00\n        /* \"KepTang/KepTang.sol\":182:194  return uName */\n      dup1\n      sload\n      tag_40\n      swap1\n      tag_41\n      jump\t// in\n    tag_40:\n      dup1\n      0x1f\n      add\n      0x20\n      dup1\n      swap2\n      div\n      mul\n      0x20\n      add\n      mload(0x40)\n      swap1\n      dup2\n      add\n      0x40\n      mstore\n      dup1\n      swap3\n      swap2\n      swap1\n      dup2\n      dup2\n      mstore\n      0x20\n      add\n      dup3\n      dup1\n      sload\n      tag_42\n      swap1\n      tag_41\n      jump\t// in\n    tag_42:\n      dup1\n      iszero\n      tag_43\n      jumpi\n      dup1\n      0x1f\n      lt\n      tag_44\n      jumpi\n      0x0100\n      dup1\n      dup4\n      sload\n      div\n      mul\n      dup4\n      mstore\n      swap2\n      0x20\n      add\n      swap2\n      jump(tag_43)\n    tag_44:\n      dup3\n      add\n      swap2\n      swap1\n      0x00\n      mstore\n      keccak256(0x00, 0x20)\n      swap1\n    tag_45:\n      dup2\n      sload\n      dup2\n      mstore\n      swap1\n      0x01\n      add\n      swap1\n      0x20\n      add\n      dup1\n      dup4\n      gt\n      tag_45\n      jumpi\n      dup3\n      swap1\n      sub\n      0x1f\n      and\n      dup3\n      add\n      swap2\n    tag_43:\n      pop\n      pop\n      pop\n      pop\n      pop\n      swap1\n      pop\n        /* \"KepTang/KepTang.sol\":116:202  function getUName() public view returns (string memory){... */\n      swap1\n      jump\t// out\n        /* \"KepTang/KepTang.sol\":88:107  string public uName */\n    tag_28:\n      0x00\n      dup1\n      sload\n      tag_46\n      swap1\n      tag_41\n      jump\t// in\n    tag_46:\n      dup1\n      0x1f\n      add\n      0x20\n      dup1\n      swap2\n      div\n      mul\n      0x20\n      add\n      mload(0x40)\n      swap1\n      dup2\n      add\n      0x40\n      mstore\n      dup1\n      swap3\n      swap2\n      swap1\n      dup2\n      dup2\n      mstore\n      0x20\n      add\n      dup3\n      dup1\n      sload\n      tag_47\n      swap1\n      tag_41\n      jump\t// in\n    tag_47:\n      dup1\n      iszero\n      tag_48\n      jumpi\n      dup1\n      0x1f\n      lt\n      tag_49\n      jumpi\n      0x0100\n      dup1\n      dup4\n      sload\n      div\n      mul\n      dup4\n      mstore\n      swap2\n      0x20\n      add\n      swap2\n      jump(tag_48)\n    tag_49:\n      dup3\n      add\n      swap2\n      swap1\n      0x00\n      mstore\n      keccak256(0x00, 0x20)\n      swap1\n    tag_50:\n      dup2\n      sload\n      dup2\n      mstore\n      swap1\n      0x01\n      add\n      swap1\n      0x20\n      add\n      dup1\n      dup4\n      gt\n      tag_50\n      jumpi\n      dup3\n      swap1\n      sub\n      0x1f\n      and\n      dup3\n      add\n      swap2\n    tag_48:\n      pop\n      pop\n      pop\n      pop\n      pop\n      dup2\n      jump\t// out\n        /* \"KepTang/KepTang.sol\":210:290  function setUName(string memory _uName) public {... */\n    tag_34:\n        /* \"KepTang/KepTang.sol\":276:282  _uName */\n      dup1\n        /* \"KepTang/KepTang.sol\":268:273  uName */\n      0x00\n        /* \"KepTang/KepTang.sol\":268:282  uName = _uName */\n      swap1\n      dup1\n      mload\n      swap1\n      0x20\n      add\n      swap1\n      tag_52\n      swap3\n      swap2\n      swap1\n      tag_53\n      jump\t// in\n    tag_52:\n      pop\n        /* \"KepTang/KepTang.sol\":210:290  function setUName(string memory _uName) public {... */\n      pop\n      jump\t// out\n    tag_53:\n      dup3\n      dup1\n      sload\n      tag_54\n      swap1\n      tag_41\n      jump\t// in\n    tag_54:\n      swap1\n      0x00\n      mstore\n      keccak256(0x00, 0x20)\n      swap1\n      0x1f\n      add\n      0x20\n      swap1\n      div\n      dup2\n      add\n      swap3\n      dup3\n      tag_56\n      jumpi\n      0x00\n      dup6\n      sstore\n      jump(tag_55)\n    tag_56:\n      dup3\n      0x1f\n      lt\n      tag_57\n      jumpi\n      dup1\n      mload\n      not(0xff)\n      and\n      dup4\n      dup1\n      add\n      or\n      dup6\n      sstore\n      jump(tag_55)\n    tag_57:\n      dup3\n      dup1\n      add\n      0x01\n      add\n      dup6\n      sstore\n      dup3\n      iszero\n      tag_55\n      jumpi\n      swap2\n      dup3\n      add\n    tag_58:\n      dup3\n      dup2\n      gt\n      iszero\n      tag_59\n      jumpi\n      dup3\n      mload\n      dup3\n      sstore\n      swap2\n      0x20\n      add\n      swap2\n      swap1\n      0x01\n      add\n      swap1\n      jump(tag_58)\n    tag_59:\n    tag_55:\n      pop\n      swap1\n      pop\n      tag_60\n      swap2\n      swap1\n      tag_61\n      jump\t// in\n    tag_60:\n      pop\n      swap1\n      jump\t// out\n    tag_61:\n    tag_62:\n      dup1\n      dup3\n      gt\n      iszero\n      tag_63\n      jumpi\n      0x00\n      dup2\n      0x00\n      swap1\n      sstore\n      pop\n      0x01\n      add\n      jump(tag_62)\n    tag_63:\n      pop\n      swap1\n      jump\t// out\n        /* \"#utility.yul\":7:84   */\n    tag_64:\n        /* \"#utility.yul\":44:51   */\n      0x00\n        /* \"#utility.yul\":73:78   */\n      dup2\n        /* \"#utility.yul\":62:78   */\n      swap1\n      pop\n        /* \"#utility.yul\":7:84   */\n      swap2\n      swap1\n      pop\n      jump\t// out\n        /* \"#utility.yul\":90:208   */\n    tag_65:\n        /* \"#utility.yul\":177:201   */\n      tag_87\n        /* \"#utility.yul\":195:200   */\n      dup2\n        /* \"#utility.yul\":177:201   */\n      tag_64\n      jump\t// in\n    tag_87:\n        /* \"#utility.yul\":172:175   */\n      dup3\n        /* \"#utility.yul\":165:202   */\n      mstore\n        /* \"#utility.yul\":90:208   */\n      pop\n      pop\n      jump\t// out\n        /* \"#utility.yul\":214:436   */\n    tag_14:\n        /* \"#utility.yul\":307:311   */\n      0x00\n        /* \"#utility.yul\":345:347   */\n      0x20\n        /* \"#utility.yul\":334:343   */\n      dup3\n        /* \"#utility.yul\":330:348   */\n      add\n        /* \"#utility.yul\":322:348   */\n      swap1\n      pop\n        /* \"#utility.yul\":358:429   */\n      tag_89\n        /* \"#utility.yul\":426:427   */\n      0x00\n        /* \"#utility.yul\":415:424   */\n      dup4\n        /* \"#utility.yul\":411:428   */\n      add\n        /* \"#utility.yul\":402:408   */\n      dup5\n        /* \"#utility.yul\":358:429   */\n      tag_65\n      jump\t// in\n    tag_89:\n        /* \"#utility.yul\":214:436   */\n      swap3\n      swap2\n      pop\n      pop\n      jump\t// out\n        /* \"#utility.yul\":442:541   */\n    tag_66:\n        /* \"#utility.yul\":494:500   */\n      0x00\n        /* \"#utility.yul\":528:533   */\n      dup2\n        /* \"#utility.yul\":522:534   */\n      mload\n        /* \"#utility.yul\":512:534   */\n      swap1\n      pop\n        /* \"#utility.yul\":442:541   */\n      swap2\n      swap1\n      pop\n      jump\t// out\n        /* \"#utility.yul\":547:716   */\n    tag_67:\n        /* \"#utility.yul\":631:642   */\n      0x00\n        /* \"#utility.yul\":665:671   */\n      dup3\n        /* \"#utility.yul\":660:663   */\n      dup3\n        /* \"#utility.yul\":653:672   */\n      mstore\n        /* \"#utility.yul\":705:709   */\n      0x20\n        /* \"#utility.yul\":700:703   */\n      dup3\n        /* \"#utility.yul\":696:710   */\n      add\n        /* \"#utility.yul\":681:710   */\n      swap1\n      pop\n        /* \"#utility.yul\":547:716   */\n      swap3\n      swap2\n      pop\n      pop\n      jump\t// out\n        /* \"#utility.yul\":722:1029   */\n    tag_68:\n        /* \"#utility.yul\":790:791   */\n      0x00\n        /* \"#utility.yul\":800:913   */\n    tag_93:\n        /* \"#utility.yul\":814:820   */\n      dup4\n        /* \"#utility.yul\":811:812   */\n      dup2\n        /* \"#utility.yul\":808:821   */\n      lt\n        /* \"#utility.yul\":800:913   */\n      iszero\n      tag_95\n      jumpi\n        /* \"#utility.yul\":899:900   */\n      dup1\n        /* \"#utility.yul\":894:897   */\n      dup3\n        /* \"#utility.yul\":890:901   */\n      add\n        /* \"#utility.yul\":884:902   */\n      mload\n        /* \"#utility.yul\":880:881   */\n      dup2\n        /* \"#utility.yul\":875:878   */\n      dup5\n        /* \"#utility.yul\":871:882   */\n      add\n        /* \"#utility.yul\":864:903   */\n      mstore\n        /* \"#utility.yul\":836:838   */\n      0x20\n        /* \"#utility.yul\":833:834   */\n      dup2\n        /* \"#utility.yul\":829:839   */\n      add\n        /* \"#utility.yul\":824:839   */\n      swap1\n      pop\n        /* \"#utility.yul\":800:913   */\n      jump(tag_93)\n    tag_95:\n        /* \"#utility.yul\":931:937   */\n      dup4\n        /* \"#utility.yul\":928:929   */\n      dup2\n        /* \"#utility.yul\":925:938   */\n      gt\n        /* \"#utility.yul\":922:1023   */\n      iszero\n      tag_96\n      jumpi\n        /* \"#utility.yul\":1011:1012   */\n      0x00\n        /* \"#utility.yul\":1002:1008   */\n      dup5\n        /* \"#utility.yul\":997:1000   */\n      dup5\n        /* \"#utility.yul\":993:1009   */\n      add\n        /* \"#utility.yul\":986:1013   */\n      mstore\n        /* \"#utility.yul\":922:1023   */\n    tag_96:\n        /* \"#utility.yul\":771:1029   */\n      pop\n        /* \"#utility.yul\":722:1029   */\n      pop\n      pop\n      pop\n      jump\t// out\n        /* \"#utility.yul\":1035:1137   */\n    tag_69:\n        /* \"#utility.yul\":1076:1082   */\n      0x00\n        /* \"#utility.yul\":1127:1129   */\n      0x1f\n        /* \"#utility.yul\":1123:1130   */\n      not\n        /* \"#utility.yul\":1118:1120   */\n      0x1f\n        /* \"#utility.yul\":1111:1116   */\n      dup4\n        /* \"#utility.yul\":1107:1121   */\n      add\n        /* \"#utility.yul\":1103:1131   */\n      and\n        /* \"#utility.yul\":1093:1131   */\n      swap1\n      pop\n        /* \"#utility.yul\":1035:1137   */\n      swap2\n      swap1\n      pop\n      jump\t// out\n        /* \"#utility.yul\":1143:1507   */\n    tag_70:\n        /* \"#utility.yul\":1231:1234   */\n      0x00\n        /* \"#utility.yul\":1259:1298   */\n      tag_99\n        /* \"#utility.yul\":1292:1297   */\n      dup3\n        /* \"#utility.yul\":1259:1298   */\n      tag_66\n      jump\t// in\n    tag_99:\n        /* \"#utility.yul\":1314:1385   */\n      tag_100\n        /* \"#utility.yul\":1378:1384   */\n      dup2\n        /* \"#utility.yul\":1373:1376   */\n      dup6\n        /* \"#utility.yul\":1314:1385   */\n      tag_67\n      jump\t// in\n    tag_100:\n        /* \"#utility.yul\":1307:1385   */\n      swap4\n      pop\n        /* \"#utility.yul\":1394:1446   */\n      tag_101\n        /* \"#utility.yul\":1439:1445   */\n      dup2\n        /* \"#utility.yul\":1434:1437   */\n      dup6\n        /* \"#utility.yul\":1427:1431   */\n      0x20\n        /* \"#utility.yul\":1420:1425   */\n      dup7\n        /* \"#utility.yul\":1416:1432   */\n      add\n        /* \"#utility.yul\":1394:1446   */\n      tag_68\n      jump\t// in\n    tag_101:\n        /* \"#utility.yul\":1471:1500   */\n      tag_102\n        /* \"#utility.yul\":1493:1499   */\n      dup2\n        /* \"#utility.yul\":1471:1500   */\n      tag_69\n      jump\t// in\n    tag_102:\n        /* \"#utility.yul\":1466:1469   */\n      dup5\n        /* \"#utility.yul\":1462:1501   */\n      add\n        /* \"#utility.yul\":1455:1501   */\n      swap2\n      pop\n        /* \"#utility.yul\":1235:1507   */\n      pop\n        /* \"#utility.yul\":1143:1507   */\n      swap3\n      swap2\n      pop\n      pop\n      jump\t// out\n        /* \"#utility.yul\":1513:1826   */\n    tag_25:\n        /* \"#utility.yul\":1626:1630   */\n      0x00\n        /* \"#utility.yul\":1664:1666   */\n      0x20\n        /* \"#utility.yul\":1653:1662   */\n      dup3\n        /* \"#utility.yul\":1649:1667   */\n      add\n        /* \"#utility.yul\":1641:1667   */\n      swap1\n      pop\n        /* \"#utility.yul\":1713:1722   */\n      dup2\n        /* \"#utility.yul\":1707:1711   */\n      dup2\n        /* \"#utility.yul\":1703:1723   */\n      sub\n        /* \"#utility.yul\":1699:1700   */\n      0x00\n        /* \"#utility.yul\":1688:1697   */\n      dup4\n        /* \"#utility.yul\":1684:1701   */\n      add\n        /* \"#utility.yul\":1677:1724   */\n      mstore\n        /* \"#utility.yul\":1741:1819   */\n      tag_104\n        /* \"#utility.yul\":1814:1818   */\n      dup2\n        /* \"#utility.yul\":1805:1811   */\n      dup5\n        /* \"#utility.yul\":1741:1819   */\n      tag_70\n      jump\t// in\n    tag_104:\n        /* \"#utility.yul\":1733:1819   */\n      swap1\n      pop\n        /* \"#utility.yul\":1513:1826   */\n      swap3\n      swap2\n      pop\n      pop\n      jump\t// out\n        /* \"#utility.yul\":1832:1907   */\n    tag_71:\n        /* \"#utility.yul\":1865:1871   */\n      0x00\n        /* \"#utility.yul\":1898:1900   */\n      0x40\n        /* \"#utility.yul\":1892:1901   */\n      mload\n        /* \"#utility.yul\":1882:1901   */\n      swap1\n      pop\n        /* \"#utility.yul\":1832:1907   */\n      swap1\n      jump\t// out\n        /* \"#utility.yul\":1913:2030   */\n    tag_72:\n        /* \"#utility.yul\":2022:2023   */\n      0x00\n        /* \"#utility.yul\":2019:2020   */\n      dup1\n        /* \"#utility.yul\":2012:2024   */\n      revert\n        /* \"#utility.yul\":2036:2153   */\n    tag_73:\n        /* \"#utility.yul\":2145:2146   */\n      0x00\n        /* \"#utility.yul\":2142:2143   */\n      dup1\n        /* \"#utility.yul\":2135:2147   */\n      revert\n        /* \"#utility.yul\":2159:2276   */\n    tag_74:\n        /* \"#utility.yul\":2268:2269   */\n      0x00\n        /* \"#utility.yul\":2265:2266   */\n      dup1\n        /* \"#utility.yul\":2258:2270   */\n      revert\n        /* \"#utility.yul\":2282:2399   */\n    tag_75:\n        /* \"#utility.yul\":2391:2392   */\n      0x00\n        /* \"#utility.yul\":2388:2389   */\n      dup1\n        /* \"#utility.yul\":2381:2393   */\n      revert\n        /* \"#utility.yul\":2405:2585   */\n    tag_76:\n        /* \"#utility.yul\":2453:2530   */\n      0x4e487b7100000000000000000000000000000000000000000000000000000000\n        /* \"#utility.yul\":2450:2451   */\n      0x00\n        /* \"#utility.yul\":2443:2531   */\n      mstore\n        /* \"#utility.yul\":2550:2554   */\n      0x41\n        /* \"#utility.yul\":2547:2548   */\n      0x04\n        /* \"#utility.yul\":2540:2555   */\n      mstore\n        /* \"#utility.yul\":2574:2578   */\n      0x24\n        /* \"#utility.yul\":2571:2572   */\n      0x00\n        /* \"#utility.yul\":2564:2579   */\n      revert\n        /* \"#utility.yul\":2591:2872   */\n    tag_77:\n        /* \"#utility.yul\":2674:2701   */\n      tag_112\n        /* \"#utility.yul\":2696:2700   */\n      dup3\n        /* \"#utility.yul\":2674:2701   */\n      tag_69\n      jump\t// in\n    tag_112:\n        /* \"#utility.yul\":2666:2672   */\n      dup2\n        /* \"#utility.yul\":2662:2702   */\n      add\n        /* \"#utility.yul\":2804:2810   */\n      dup2\n        /* \"#utility.yul\":2792:2802   */\n      dup2\n        /* \"#utility.yul\":2789:2811   */\n      lt\n        /* \"#utility.yul\":2768:2786   */\n      0xffffffffffffffff\n        /* \"#utility.yul\":2756:2766   */\n      dup3\n        /* \"#utility.yul\":2753:2787   */\n      gt\n        /* \"#utility.yul\":2750:2812   */\n      or\n        /* \"#utility.yul\":2747:2835   */\n      iszero\n      tag_113\n      jumpi\n        /* \"#utility.yul\":2815:2833   */\n      tag_114\n      tag_76\n      jump\t// in\n    tag_114:\n        /* \"#utility.yul\":2747:2835   */\n    tag_113:\n        /* \"#utility.yul\":2855:2865   */\n      dup1\n        /* \"#utility.yul\":2851:2853   */\n      0x40\n        /* \"#utility.yul\":2844:2866   */\n      mstore\n        /* \"#utility.yul\":2634:2872   */\n      pop\n        /* \"#utility.yul\":2591:2872   */\n      pop\n      pop\n      jump\t// out\n        /* \"#utility.yul\":2878:3007   */\n    tag_78:\n        /* \"#utility.yul\":2912:2918   */\n      0x00\n        /* \"#utility.yul\":2939:2959   */\n      tag_116\n      tag_71\n      jump\t// in\n    tag_116:\n        /* \"#utility.yul\":2929:2959   */\n      swap1\n      pop\n        /* \"#utility.yul\":2968:3001   */\n      tag_117\n        /* \"#utility.yul\":2996:3000   */\n      dup3\n        /* \"#utility.yul\":2988:2994   */\n      dup3\n        /* \"#utility.yul\":2968:3001   */\n      tag_77\n      jump\t// in\n    tag_117:\n        /* \"#utility.yul\":2878:3007   */\n      swap2\n      swap1\n      pop\n      jump\t// out\n        /* \"#utility.yul\":3013:3321   */\n    tag_79:\n        /* \"#utility.yul\":3075:3079   */\n      0x00\n        /* \"#utility.yul\":3165:3183   */\n      0xffffffffffffffff\n        /* \"#utility.yul\":3157:3163   */\n      dup3\n        /* \"#utility.yul\":3154:3184   */\n      gt\n        /* \"#utility.yul\":3151:3207   */\n      iszero\n      tag_119\n      jumpi\n        /* \"#utility.yul\":3187:3205   */\n      tag_120\n      tag_76\n      jump\t// in\n    tag_120:\n        /* \"#utility.yul\":3151:3207   */\n    tag_119:\n        /* \"#utility.yul\":3225:3254   */\n      tag_121\n        /* \"#utility.yul\":3247:3253   */\n      dup3\n        /* \"#utility.yul\":3225:3254   */\n      tag_69\n      jump\t// in\n    tag_121:\n        /* \"#utility.yul\":3217:3254   */\n      swap1\n      pop\n        /* \"#utility.yul\":3309:3313   */\n      0x20\n        /* \"#utility.yul\":3303:3307   */\n      dup2\n        /* \"#utility.yul\":3299:3314   */\n      add\n        /* \"#utility.yul\":3291:3314   */\n      swap1\n      pop\n        /* \"#utility.yul\":3013:3321   */\n      swap2\n      swap1\n      pop\n      jump\t// out\n        /* \"#utility.yul\":3327:3481   */\n    tag_80:\n        /* \"#utility.yul\":3411:3417   */\n      dup3\n        /* \"#utility.yul\":3406:3409   */\n      dup2\n        /* \"#utility.yul\":3401:3404   */\n      dup4\n        /* \"#utility.yul\":3388:3418   */\n      calldatacopy\n        /* \"#utility.yul\":3473:3474   */\n      0x00\n        /* \"#utility.yul\":3464:3470   */\n      dup4\n        /* \"#utility.yul\":3459:3462   */\n      dup4\n        /* \"#utility.yul\":3455:3471   */\n      add\n        /* \"#utility.yul\":3448:3475   */\n      mstore\n        /* \"#utility.yul\":3327:3481   */\n      pop\n      pop\n      pop\n      jump\t// out\n        /* \"#utility.yul\":3487:3899   */\n    tag_81:\n        /* \"#utility.yul\":3565:3570   */\n      0x00\n        /* \"#utility.yul\":3590:3656   */\n      tag_124\n        /* \"#utility.yul\":3606:3655   */\n      tag_125\n        /* \"#utility.yul\":3648:3654   */\n      dup5\n        /* \"#utility.yul\":3606:3655   */\n      tag_79\n      jump\t// in\n    tag_125:\n        /* \"#utility.yul\":3590:3656   */\n      tag_78\n      jump\t// in\n    tag_124:\n        /* \"#utility.yul\":3581:3656   */\n      swap1\n      pop\n        /* \"#utility.yul\":3679:3685   */\n      dup3\n        /* \"#utility.yul\":3672:3677   */\n      dup2\n        /* \"#utility.yul\":3665:3686   */\n      mstore\n        /* \"#utility.yul\":3717:3721   */\n      0x20\n        /* \"#utility.yul\":3710:3715   */\n      dup2\n        /* \"#utility.yul\":3706:3722   */\n      add\n        /* \"#utility.yul\":3755:3758   */\n      dup5\n        /* \"#utility.yul\":3746:3752   */\n      dup5\n        /* \"#utility.yul\":3741:3744   */\n      dup5\n        /* \"#utility.yul\":3737:3753   */\n      add\n        /* \"#utility.yul\":3734:3759   */\n      gt\n        /* \"#utility.yul\":3731:3843   */\n      iszero\n      tag_126\n      jumpi\n        /* \"#utility.yul\":3762:3841   */\n      tag_127\n      tag_75\n      jump\t// in\n    tag_127:\n        /* \"#utility.yul\":3731:3843   */\n    tag_126:\n        /* \"#utility.yul\":3852:3893   */\n      tag_128\n        /* \"#utility.yul\":3886:3892   */\n      dup5\n        /* \"#utility.yul\":3881:3884   */\n      dup3\n        /* \"#utility.yul\":3876:3879   */\n      dup6\n        /* \"#utility.yul\":3852:3893   */\n      tag_80\n      jump\t// in\n    tag_128:\n        /* \"#utility.yul\":3571:3899   */\n      pop\n        /* \"#utility.yul\":3487:3899   */\n      swap4\n      swap3\n      pop\n      pop\n      pop\n      jump\t// out\n        /* \"#utility.yul\":3919:4259   */\n    tag_82:\n        /* \"#utility.yul\":3975:3980   */\n      0x00\n        /* \"#utility.yul\":4024:4027   */\n      dup3\n        /* \"#utility.yul\":4017:4021   */\n      0x1f\n        /* \"#utility.yul\":4009:4015   */\n      dup4\n        /* \"#utility.yul\":4005:4022   */\n      add\n        /* \"#utility.yul\":4001:4028   */\n      slt\n        /* \"#utility.yul\":3991:4113   */\n      tag_130\n      jumpi\n        /* \"#utility.yul\":4032:4111   */\n      tag_131\n      tag_74\n      jump\t// in\n    tag_131:\n        /* \"#utility.yul\":3991:4113   */\n    tag_130:\n        /* \"#utility.yul\":4149:4155   */\n      dup2\n        /* \"#utility.yul\":4136:4156   */\n      calldataload\n        /* \"#utility.yul\":4174:4253   */\n      tag_132\n        /* \"#utility.yul\":4249:4252   */\n      dup5\n        /* \"#utility.yul\":4241:4247   */\n      dup3\n        /* \"#utility.yul\":4234:4238   */\n      0x20\n        /* \"#utility.yul\":4226:4232   */\n      dup7\n        /* \"#utility.yul\":4222:4239   */\n      add\n        /* \"#utility.yul\":4174:4253   */\n      tag_81\n      jump\t// in\n    tag_132:\n        /* \"#utility.yul\":4165:4253   */\n      swap2\n      pop\n        /* \"#utility.yul\":3981:4259   */\n      pop\n        /* \"#utility.yul\":3919:4259   */\n      swap3\n      swap2\n      pop\n      pop\n      jump\t// out\n        /* \"#utility.yul\":4265:4774   */\n    tag_33:\n        /* \"#utility.yul\":4334:4340   */\n      0x00\n        /* \"#utility.yul\":4383:4385   */\n      0x20\n        /* \"#utility.yul\":4371:4380   */\n      dup3\n        /* \"#utility.yul\":4362:4369   */\n      dup5\n        /* \"#utility.yul\":4358:4381   */\n      sub\n        /* \"#utility.yul\":4354:4386   */\n      slt\n        /* \"#utility.yul\":4351:4470   */\n      iszero\n      tag_134\n      jumpi\n        /* \"#utility.yul\":4389:4468   */\n      tag_135\n      tag_72\n      jump\t// in\n    tag_135:\n        /* \"#utility.yul\":4351:4470   */\n    tag_134:\n        /* \"#utility.yul\":4537:4538   */\n      0x00\n        /* \"#utility.yul\":4526:4535   */\n      dup3\n        /* \"#utility.yul\":4522:4539   */\n      add\n        /* \"#utility.yul\":4509:4540   */\n      calldataload\n        /* \"#utility.yul\":4567:4585   */\n      0xffffffffffffffff\n        /* \"#utility.yul\":4559:4565   */\n      dup2\n        /* \"#utility.yul\":4556:4586   */\n      gt\n        /* \"#utility.yul\":4553:4670   */\n      iszero\n      tag_136\n      jumpi\n        /* \"#utility.yul\":4589:4668   */\n      tag_137\n      tag_73\n      jump\t// in\n    tag_137:\n        /* \"#utility.yul\":4553:4670   */\n    tag_136:\n        /* \"#utility.yul\":4694:4757   */\n      tag_138\n        /* \"#utility.yul\":4749:4756   */\n      dup5\n        /* \"#utility.yul\":4740:4746   */\n      dup3\n        /* \"#utility.yul\":4729:4738   */\n      dup6\n        /* \"#utility.yul\":4725:4747   */\n      add\n        /* \"#utility.yul\":4694:4757   */\n      tag_82\n      jump\t// in\n    tag_138:\n        /* \"#utility.yul\":4684:4757   */\n      swap2\n      pop\n        /* \"#utility.yul\":4480:4767   */\n      pop\n        /* \"#utility.yul\":4265:4774   */\n      swap3\n      swap2\n      pop\n      pop\n      jump\t// out\n        /* \"#utility.yul\":4780:4960   */\n    tag_83:\n        /* \"#utility.yul\":4828:4905   */\n      0x4e487b7100000000000000000000000000000000000000000000000000000000\n        /* \"#utility.yul\":4825:4826   */\n      0x00\n        /* \"#utility.yul\":4818:4906   */\n      mstore\n        /* \"#utility.yul\":4925:4929   */\n      0x22\n        /* \"#utility.yul\":4922:4923   */\n      0x04\n        /* \"#utility.yul\":4915:4930   */\n      mstore\n        /* \"#utility.yul\":4949:4953   */\n      0x24\n        /* \"#utility.yul\":4946:4947   */\n      0x00\n        /* \"#utility.yul\":4939:4954   */\n      revert\n        /* \"#utility.yul\":4966:5286   */\n    tag_41:\n        /* \"#utility.yul\":5010:5016   */\n      0x00\n        /* \"#utility.yul\":5047:5048   */\n      0x02\n        /* \"#utility.yul\":5041:5045   */\n      dup3\n        /* \"#utility.yul\":5037:5049   */\n      div\n        /* \"#utility.yul\":5027:5049   */\n      swap1\n      pop\n        /* \"#utility.yul\":5094:5095   */\n      0x01\n        /* \"#utility.yul\":5088:5092   */\n      dup3\n        /* \"#utility.yul\":5084:5096   */\n      and\n        /* \"#utility.yul\":5115:5133   */\n      dup1\n        /* \"#utility.yul\":5105:5186   */\n      tag_141\n      jumpi\n        /* \"#utility.yul\":5171:5175   */\n      0x7f\n        /* \"#utility.yul\":5163:5169   */\n      dup3\n        /* \"#utility.yul\":5159:5176   */\n      and\n        /* \"#utility.yul\":5149:5176   */\n      swap2\n      pop\n        /* \"#utility.yul\":5105:5186   */\n    tag_141:\n        /* \"#utility.yul\":5233:5235   */\n      0x20\n        /* \"#utility.yul\":5225:5231   */\n      dup3\n        /* \"#utility.yul\":5222:5236   */\n      lt\n        /* \"#utility.yul\":5202:5220   */\n      dup2\n        /* \"#utility.yul\":5199:5237   */\n      sub\n        /* \"#utility.yul\":5196:5280   */\n      tag_142\n      jumpi\n        /* \"#utility.yul\":5252:5270   */\n      tag_143\n      tag_83\n      jump\t// in\n    tag_143:\n        /* \"#utility.yul\":5196:5280   */\n    tag_142:\n        /* \"#utility.yul\":5017:5286   */\n      pop\n        /* \"#utility.yul\":4966:5286   */\n      swap2\n      swap1\n      pop\n      jump\t// out\n\n    auxdata: 0xa2646970667358221220efd9d29cfcd5d4e34d2d43263a7c3296ee29b0faea7f717bb889becda92b193664736f6c634300080d0033\n}\n",
				"bytecode": {
					"linkReferences": {},
					"object": "608060405234801561001057600080fd5b5061063f806100206000396000f3fe6080604052600436106100705760003560e01c8063343bfdff1161004e578063343bfdff146100b4578063572b3e46146100be5780639d25ff09146100e9578063db897fd61461011457610070565b806312065fe01461007557806321adf6a4146100a0578063248c44e8146100aa575b600080fd5b34801561008157600080fd5b5061008a61013d565b6040516100979190610341565b60405180910390f35b6100a8610145565b005b6100b2610147565b005b6100bc610149565b005b3480156100ca57600080fd5b506100d361014b565b6040516100e091906103f5565b60405180910390f35b3480156100f557600080fd5b506100fe6101dd565b60405161010b91906103f5565b60405180910390f35b34801561012057600080fd5b5061013b60048036038101906101369190610560565b61026b565b005b600047905090565b565b565b565b60606000805461015a906105d8565b80601f0160208091040260200160405190810160405280929190818152602001828054610186906105d8565b80156101d35780601f106101a8576101008083540402835291602001916101d3565b820191906000526020600020905b8154815290600101906020018083116101b657829003601f168201915b5050505050905090565b600080546101ea906105d8565b80601f0160208091040260200160405190810160405280929190818152602001828054610216906105d8565b80156102635780601f1061023857610100808354040283529160200191610263565b820191906000526020600020905b81548152906001019060200180831161024657829003601f168201915b505050505081565b8060009080519060200190610281929190610285565b5050565b828054610291906105d8565b90600052602060002090601f0160209004810192826102b357600085556102fa565b82601f106102cc57805160ff19168380011785556102fa565b828001600101855582156102fa579182015b828111156102f95782518255916020019190600101906102de565b5b509050610307919061030b565b5090565b5b8082111561032457600081600090555060010161030c565b5090565b6000819050919050565b61033b81610328565b82525050565b60006020820190506103566000830184610332565b92915050565b600081519050919050565b600082825260208201905092915050565b60005b8381101561039657808201518184015260208101905061037b565b838111156103a5576000848401525b50505050565b6000601f19601f8301169050919050565b60006103c78261035c565b6103d18185610367565b93506103e1818560208601610378565b6103ea816103ab565b840191505092915050565b6000602082019050818103600083015261040f81846103bc565b905092915050565b6000604051905090565b600080fd5b600080fd5b600080fd5b600080fd5b7f4e487b7100000000000000000000000000000000000000000000000000000000600052604160045260246000fd5b61046d826103ab565b810181811067ffffffffffffffff8211171561048c5761048b610435565b5b80604052505050565b600061049f610417565b90506104ab8282610464565b919050565b600067ffffffffffffffff8211156104cb576104ca610435565b5b6104d4826103ab565b9050602081019050919050565b82818337600083830152505050565b60006105036104fe846104b0565b610495565b90508281526020810184848401111561051f5761051e610430565b5b61052a8482856104e1565b509392505050565b600082601f8301126105475761054661042b565b5b81356105578482602086016104f0565b91505092915050565b60006020828403121561057657610575610421565b5b600082013567ffffffffffffffff81111561059457610593610426565b5b6105a084828501610532565b91505092915050565b7f4e487b7100000000000000000000000000000000000000000000000000000000600052602260045260246000fd5b600060028204905060018216806105f057607f821691505b602082108103610603576106026105a9565b5b5091905056fea2646970667358221220efd9d29cfcd5d4e34d2d43263a7c3296ee29b0faea7f717bb889becda92b193664736f6c634300080d0033",
					"opcodes": "PUSH1 0x80 PUSH1 0x40 MSTORE CALLVALUE DUP1 ISZERO PUSH2 0x10 JUMPI PUSH1 0x0 DUP1 REVERT JUMPDEST POP PUSH2 0x63F DUP1 PUSH2 0x20 PUSH1 0x0 CODECOPY PUSH1 0x0 RETURN INVALID PUSH1 0x80 PUSH1 0x40 MSTORE PUSH1 0x4 CALLDATASIZE LT PUSH2 0x70 JUMPI PUSH1 0x0 CALLDATALOAD PUSH1 0xE0 SHR DUP1 PUSH4 0x343BFDFF GT PUSH2 0x4E JUMPI DUP1 PUSH4 0x343BFDFF EQ PUSH2 0xB4 JUMPI DUP1 PUSH4 0x572B3E46 EQ PUSH2 0xBE JUMPI DUP1 PUSH4 0x9D25FF09 EQ PUSH2 0xE9 JUMPI DUP1 PUSH4 0xDB897FD6 EQ PUSH2 0x114 JUMPI PUSH2 0x70 JUMP JUMPDEST DUP1 PUSH4 0x12065FE0 EQ PUSH2 0x75 JUMPI DUP1 PUSH4 0x21ADF6A4 EQ PUSH2 0xA0 JUMPI DUP1 PUSH4 0x248C44E8 EQ PUSH2 0xAA JUMPI JUMPDEST PUSH1 0x0 DUP1 REVERT JUMPDEST CALLVALUE DUP1 ISZERO PUSH2 0x81 JUMPI PUSH1 0x0 DUP1 REVERT JUMPDEST POP PUSH2 0x8A PUSH2 0x13D JUMP JUMPDEST PUSH1 0x40 MLOAD PUSH2 0x97 SWAP2 SWAP1 PUSH2 0x341 JUMP JUMPDEST PUSH1 0x40 MLOAD DUP1 SWAP2 SUB SWAP1 RETURN JUMPDEST PUSH2 0xA8 PUSH2 0x145 JUMP JUMPDEST STOP JUMPDEST PUSH2 0xB2 PUSH2 0x147 JUMP JUMPDEST STOP JUMPDEST PUSH2 0xBC PUSH2 0x149 JUMP JUMPDEST STOP JUMPDEST CALLVALUE DUP1 ISZERO PUSH2 0xCA JUMPI PUSH1 0x0 DUP1 REVERT JUMPDEST POP PUSH2 0xD3 PUSH2 0x14B JUMP JUMPDEST PUSH1 0x40 MLOAD PUSH2 0xE0 SWAP2 SWAP1 PUSH2 0x3F5 JUMP JUMPDEST PUSH1 0x40 MLOAD DUP1 SWAP2 SUB SWAP1 RETURN JUMPDEST CALLVALUE DUP1 ISZERO PUSH2 0xF5 JUMPI PUSH1 0x0 DUP1 REVERT JUMPDEST POP PUSH2 0xFE PUSH2 0x1DD JUMP JUMPDEST PUSH1 0x40 MLOAD PUSH2 0x10B SWAP2 SWAP1 PUSH2 0x3F5 JUMP JUMPDEST PUSH1 0x40 MLOAD DUP1 SWAP2 SUB SWAP1 RETURN JUMPDEST CALLVALUE DUP1 ISZERO PUSH2 0x120 JUMPI PUSH1 0x0 DUP1 REVERT JUMPDEST POP PUSH2 0x13B PUSH1 0x4 DUP1 CALLDATASIZE SUB DUP2 ADD SWAP1 PUSH2 0x136 SWAP2 SWAP1 PUSH2 0x560 JUMP JUMPDEST PUSH2 0x26B JUMP JUMPDEST STOP JUMPDEST PUSH1 0x0 SELFBALANCE SWAP1 POP SWAP1 JUMP JUMPDEST JUMP JUMPDEST JUMP JUMPDEST JUMP JUMPDEST PUSH1 0x60 PUSH1 0x0 DUP1 SLOAD PUSH2 0x15A SWAP1 PUSH2 0x5D8 JUMP JUMPDEST DUP1 PUSH1 0x1F ADD PUSH1 0x20 DUP1 SWAP2 DIV MUL PUSH1 0x20 ADD PUSH1 0x40 MLOAD SWAP1 DUP2 ADD PUSH1 0x40 MSTORE DUP1 SWAP3 SWAP2 SWAP1 DUP2 DUP2 MSTORE PUSH1 0x20 ADD DUP3 DUP1 SLOAD PUSH2 0x186 SWAP1 PUSH2 0x5D8 JUMP JUMPDEST DUP1 ISZERO PUSH2 0x1D3 JUMPI DUP1 PUSH1 0x1F LT PUSH2 0x1A8 JUMPI PUSH2 0x100 DUP1 DUP4 SLOAD DIV MUL DUP4 MSTORE SWAP2 PUSH1 0x20 ADD SWAP2 PUSH2 0x1D3 JUMP JUMPDEST DUP3 ADD SWAP2 SWAP1 PUSH1 0x0 MSTORE PUSH1 0x20 PUSH1 0x0 KECCAK256 SWAP1 JUMPDEST DUP2 SLOAD DUP2 MSTORE SWAP1 PUSH1 0x1 ADD SWAP1 PUSH1 0x20 ADD DUP1 DUP4 GT PUSH2 0x1B6 JUMPI DUP3 SWAP1 SUB PUSH1 0x1F AND DUP3 ADD SWAP2 JUMPDEST POP POP POP POP POP SWAP1 POP SWAP1 JUMP JUMPDEST PUSH1 0x0 DUP1 SLOAD PUSH2 0x1EA SWAP1 PUSH2 0x5D8 JUMP JUMPDEST DUP1 PUSH1 0x1F ADD PUSH1 0x20 DUP1 SWAP2 DIV MUL PUSH1 0x20 ADD PUSH1 0x40 MLOAD SWAP1 DUP2 ADD PUSH1 0x40 MSTORE DUP1 SWAP3 SWAP2 SWAP1 DUP2 DUP2 MSTORE PUSH1 0x20 ADD DUP3 DUP1 SLOAD PUSH2 0x216 SWAP1 PUSH2 0x5D8 JUMP JUMPDEST DUP1 ISZERO PUSH2 0x263 JUMPI DUP1 PUSH1 0x1F LT PUSH2 0x238 JUMPI PUSH2 0x100 DUP1 DUP4 SLOAD DIV MUL DUP4 MSTORE SWAP2 PUSH1 0x20 ADD SWAP2 PUSH2 0x263 JUMP JUMPDEST DUP3 ADD SWAP2 SWAP1 PUSH1 0x0 MSTORE PUSH1 0x20 PUSH1 0x0 KECCAK256 SWAP1 JUMPDEST DUP2 SLOAD DUP2 MSTORE SWAP1 PUSH1 0x1 ADD SWAP1 PUSH1 0x20 ADD DUP1 DUP4 GT PUSH2 0x246 JUMPI DUP3 SWAP1 SUB PUSH1 0x1F AND DUP3 ADD SWAP2 JUMPDEST POP POP POP POP POP DUP2 JUMP JUMPDEST DUP1 PUSH1 0x0 SWAP1 DUP1 MLOAD SWAP1 PUSH1 0x20 ADD SWAP1 PUSH2 0x281 SWAP3 SWAP2 SWAP1 PUSH2 0x285 JUMP JUMPDEST POP POP JUMP JUMPDEST DUP3 DUP1 SLOAD PUSH2 0x291 SWAP1 PUSH2 0x5D8 JUMP JUMPDEST SWAP1 PUSH1 0x0 MSTORE PUSH1 0x20 PUSH1 0x0 KECCAK256 SWAP1 PUSH1 0x1F ADD PUSH1 0x20 SWAP1 DIV DUP2 ADD SWAP3 DUP3 PUSH2 0x2B3 JUMPI PUSH1 0x0 DUP6 SSTORE PUSH2 0x2FA JUMP JUMPDEST DUP3 PUSH1 0x1F LT PUSH2 0x2CC JUMPI DUP1 MLOAD PUSH1 0xFF NOT AND DUP4 DUP1 ADD OR DUP6 SSTORE PUSH2 0x2FA JUMP JUMPDEST DUP3 DUP1 ADD PUSH1 0x1 ADD DUP6 SSTORE DUP3 ISZERO PUSH2 0x2FA JUMPI SWAP2 DUP3 ADD JUMPDEST DUP3 DUP2 GT ISZERO PUSH2 0x2F9 JUMPI DUP3 MLOAD DUP3 SSTORE SWAP2 PUSH1 0x20 ADD SWAP2 SWAP1 PUSH1 0x1 ADD SWAP1 PUSH2 0x2DE JUMP JUMPDEST JUMPDEST POP SWAP1 POP PUSH2 0x307 SWAP2 SWAP1 PUSH2 0x30B JUMP JUMPDEST POP SWAP1 JUMP JUMPDEST JUMPDEST DUP1 DUP3 GT ISZERO PUSH2 0x324 JUMPI PUSH1 0x0 DUP2 PUSH1 0x0 SWAP1 SSTORE POP PUSH1 0x1 ADD PUSH2 0x30C JUMP JUMPDEST POP SWAP1 JUMP JUMPDEST PUSH1 0x0 DUP2 SWAP1 POP SWAP2 SWAP1 POP JUMP JUMPDEST PUSH2 0x33B DUP2 PUSH2 0x328 JUMP JUMPDEST DUP3 MSTORE POP POP JUMP JUMPDEST PUSH1 0x0 PUSH1 0x20 DUP3 ADD SWAP1 POP PUSH2 0x356 PUSH1 0x0 DUP4 ADD DUP5 PUSH2 0x332 JUMP JUMPDEST SWAP3 SWAP2 POP POP JUMP JUMPDEST PUSH1 0x0 DUP2 MLOAD SWAP1 POP SWAP2 SWAP1 POP JUMP JUMPDEST PUSH1 0x0 DUP3 DUP3 MSTORE PUSH1 0x20 DUP3 ADD SWAP1 POP SWAP3 SWAP2 POP POP JUMP JUMPDEST PUSH1 0x0 JUMPDEST DUP4 DUP2 LT ISZERO PUSH2 0x396 JUMPI DUP1 DUP3 ADD MLOAD DUP2 DUP5 ADD MSTORE PUSH1 0x20 DUP2 ADD SWAP1 POP PUSH2 0x37B JUMP JUMPDEST DUP4 DUP2 GT ISZERO PUSH2 0x3A5 JUMPI PUSH1 0x0 DUP5 DUP5 ADD MSTORE JUMPDEST POP POP POP POP JUMP JUMPDEST PUSH1 0x0 PUSH1 0x1F NOT PUSH1 0x1F DUP4 ADD AND SWAP1 POP SWAP2 SWAP1 POP JUMP JUMPDEST PUSH1 0x0 PUSH2 0x3C7 DUP3 PUSH2 0x35C JUMP JUMPDEST PUSH2 0x3D1 DUP2 DUP6 PUSH2 0x367 JUMP JUMPDEST SWAP4 POP PUSH2 0x3E1 DUP2 DUP6 PUSH1 0x20 DUP7 ADD PUSH2 0x378 JUMP JUMPDEST PUSH2 0x3EA DUP2 PUSH2 0x3AB JUMP JUMPDEST DUP5 ADD SWAP2 POP POP SWAP3 SWAP2 POP POP JUMP JUMPDEST PUSH1 0x0 PUSH1 0x20 DUP3 ADD SWAP1 POP DUP2 DUP2 SUB PUSH1 0x0 DUP4 ADD MSTORE PUSH2 0x40F DUP2 DUP5 PUSH2 0x3BC JUMP JUMPDEST SWAP1 POP SWAP3 SWAP2 POP POP JUMP JUMPDEST PUSH1 0x0 PUSH1 0x40 MLOAD SWAP1 POP SWAP1 JUMP JUMPDEST PUSH1 0x0 DUP1 REVERT JUMPDEST PUSH1 0x0 DUP1 REVERT JUMPDEST PUSH1 0x0 DUP1 REVERT JUMPDEST PUSH1 0x0 DUP1 REVERT JUMPDEST PUSH32 0x4E487B7100000000000000000000000000000000000000000000000000000000 PUSH1 0x0 MSTORE PUSH1 0x41 PUSH1 0x4 MSTORE PUSH1 0x24 PUSH1 0x0 REVERT JUMPDEST PUSH2 0x46D DUP3 PUSH2 0x3AB JUMP JUMPDEST DUP2 ADD DUP2 DUP2 LT PUSH8 0xFFFFFFFFFFFFFFFF DUP3 GT OR ISZERO PUSH2 0x48C JUMPI PUSH2 0x48B PUSH2 0x435 JUMP JUMPDEST JUMPDEST DUP1 PUSH1 0x40 MSTORE POP POP POP JUMP JUMPDEST PUSH1 0x0 PUSH2 0x49F PUSH2 0x417 JUMP JUMPDEST SWAP1 POP PUSH2 0x4AB DUP3 DUP3 PUSH2 0x464 JUMP JUMPDEST SWAP2 SWAP1 POP JUMP JUMPDEST PUSH1 0x0 PUSH8 0xFFFFFFFFFFFFFFFF DUP3 GT ISZERO PUSH2 0x4CB JUMPI PUSH2 0x4CA PUSH2 0x435 JUMP JUMPDEST JUMPDEST PUSH2 0x4D4 DUP3 PUSH2 0x3AB JUMP JUMPDEST SWAP1 POP PUSH1 0x20 DUP2 ADD SWAP1 POP SWAP2 SWAP1 POP JUMP JUMPDEST DUP3 DUP2 DUP4 CALLDATACOPY PUSH1 0x0 DUP4 DUP4 ADD MSTORE POP POP POP JUMP JUMPDEST PUSH1 0x0 PUSH2 0x503 PUSH2 0x4FE DUP5 PUSH2 0x4B0 JUMP JUMPDEST PUSH2 0x495 JUMP JUMPDEST SWAP1 POP DUP3 DUP2 MSTORE PUSH1 0x20 DUP2 ADD DUP5 DUP5 DUP5 ADD GT ISZERO PUSH2 0x51F JUMPI PUSH2 0x51E PUSH2 0x430 JUMP JUMPDEST JUMPDEST PUSH2 0x52A DUP5 DUP3 DUP6 PUSH2 0x4E1 JUMP JUMPDEST POP SWAP4 SWAP3 POP POP POP JUMP JUMPDEST PUSH1 0x0 DUP3 PUSH1 0x1F DUP4 ADD SLT PUSH2 0x547 JUMPI PUSH2 0x546 PUSH2 0x42B JUMP JUMPDEST JUMPDEST DUP2 CALLDATALOAD PUSH2 0x557 DUP5 DUP3 PUSH1 0x20 DUP7 ADD PUSH2 0x4F0 JUMP JUMPDEST SWAP2 POP POP SWAP3 SWAP2 POP POP JUMP JUMPDEST PUSH1 0x0 PUSH1 0x20 DUP3 DUP5 SUB SLT ISZERO PUSH2 0x576 JUMPI PUSH2 0x575 PUSH2 0x421 JUMP JUMPDEST JUMPDEST PUSH1 0x0 DUP3 ADD CALLDATALOAD PUSH8 0xFFFFFFFFFFFFFFFF DUP2 GT ISZERO PUSH2 0x594 JUMPI PUSH2 0x593 PUSH2 0x426 JUMP JUMPDEST JUMPDEST PUSH2 0x5A0 DUP5 DUP3 DUP6 ADD PUSH2 0x532 JUMP JUMPDEST SWAP2 POP POP SWAP3 SWAP2 POP POP JUMP JUMPDEST PUSH32 0x4E487B7100000000000000000000000000000000000000000000000000000000 PUSH1 0x0 MSTORE PUSH1 0x22 PUSH1 0x4 MSTORE PUSH1 0x24 PUSH1 0x0 REVERT JUMPDEST PUSH1 0x0 PUSH1 0x2 DUP3 DIV SWAP1 POP PUSH1 0x1 DUP3 AND DUP1 PUSH2 0x5F0 JUMPI PUSH1 0x7F DUP3 AND SWAP2 POP JUMPDEST PUSH1 0x20 DUP3 LT DUP2 SUB PUSH2 0x603 JUMPI PUSH2 0x602 PUSH2 0x5A9 JUMP JUMPDEST JUMPDEST POP SWAP2 SWAP1 POP JUMP INVALID LOG2 PUSH5 0x6970667358 0x22 SLT KECCAK256 0xEF 0xD9 0xD2 SWAP13 0xFC 0xD5 0xD4 0xE3 0x4D 0x2D NUMBER 0x26 GASPRICE PUSH29 0x3296EE29B0FAEA7F717BB889BECDA92B193664736F6C634300080D0033 "
				},
				"gasEstimates": {
					"creation": {
						"codeDepositCost": "319800",
						"executionCost": "355",
						"totalCost": "320155"
					},
					"external": {
						"getBalance()": "340",
						"getUName()": "infinite",
						"setUName(string)": "infinite",
						"transfer1()": "120",
						"transfer2()": "165",
						"transfer3()": "143",
						"uName()": "infinite"
					}
				},
				"methodIdentifiers": {
					"getBalance()": "12065fe0",
					"getUName()": "572b3e46",
					"setUName(string)": "db897fd6",
					"transfer1()": "343bfdff",
					"transfer2()": "248c44e8",
					"transfer3()": "21adf6a4",
					"uName()": "9d25ff09"
				}
			},
			"storageLayout": {
				"storage": [
					{
						"astId": 3,
						"contract": "KepTang/KepTang.sol:KebTang",
						"label": "uName",
						"offset": 0,
						"slot": "0",
						"type": "t_string_storage"
					}
				],
				"types": {
					"t_string_storage": {
						"encoding": "bytes",
						"label": "string",
						"numberOfBytes": "32"
					}
				}
			},
			"userdoc": {
				"kind": "user",
				"methods": {},
				"version": 1
			}
		}
	}
}